S02400004652454552544F535F4F4C4544315F5850524F5F4558414D504C45322E737265639D
S113000058610020891D0000851D0000851D000029
S113001000000000000000000000000000000000DC
S1130020000000000000000000000000751F000038
S11300300000000000000000512000009520000096
S1130040851D0000851D0000851D0000851D000024
S1130050851D0000851D0000851D0000851D000014
S1130060851D0000250D0000350D0000450D000024
S1130070550D0000650D0000750D0000851D000084
S1130080851D0000851D0000851D0000851D0000E4
S1130090851D00000000000000000000851D000018
S11300A0851D000000000000851D00000000000008
S11300B00000000010B5064C2378002B07D1054B37
S11300C0002B02D0044800E000BF0123237010BDC0
S11300D01C000020000000007C450000084B10B507
S11300E0002B03D00749084800E000BF0748036815
S11300F0002B00D110BD064B002BFBD09847F9E72D
S113010000000000200000207C4500007C45000029
S113011000000000F0B583B06B46DF1DD8710B4EB4
S11301200B4C0122310020000A4DA8478022920185
S1130130094B5A61012239002000084B98470022DC
S113014031002000A84703B0F0BDC0463441002070
S1130150F84000205D0F00000044004151100000F1
S1130160F0B591B0604B9847604C23232370002373
S11301706370A37002A901224A708B700A70232055
S11301805B4B98472378D9090022002904D15A09E6
S1130190D20158498C4662441F2633400125290068
S11301A09940916102AC2570002303930493237456
S11301B06374A574E57423752422A354183A0021AA
S11301C008A84D4B984780235B02E3604B4BA36226
S11301D001235B42E3624A4B23634A4B63634A4B0A
S11301E0A3614A4F22004A4938004A4B98473C6869
S11301F02000494B98470640B540484B1D603A687B
S1130200D369002BFCD1236802221343236001AC81
S1130210012363700022A270237021000D20344D4D
S1130220A84721001720A84700203D4B984736498E
S11302303C4B9847830018184000802212042D4B31
S11302405A6100284AD0384B586000229A6019003D
S1130250802252020B681342FCD080221204254BE8
S11302609A61314B586000229A6019008022520230
S11302700B681342FCD0802212041E4B9A61A82002
S11302802A4CA0471F20A047D320A0470020A04706
S11302904020A047A120A047C820A047DA20A047BB
S11302A00220A0478120A0478F20A047A420A04778
S11302B0A620A047D520A0478020A0478D20A04796
S11302C01420A047DB20A0474020A047D920A04706
S11302D0F120A047AF20A04711B0F0BD8022120446
S11302E0044B9A61C7E7C0467D03000034410020F7
S11302F01D090000004400414B410000030022009E
S1130300030036000300370040420F00F84000208D
S1130310001C0042850D0000F50C000000E100E027
S1130320151B0000853F000010E000E015010000EF
S1130330F0B583B06B46DF1DD8710B4E0B4C012218
S1130340310020000A4DA84780229201094B9A618E
S1130350012239002000084B984700223100200078
S1130360A84703B0F0BDC04634410020F840002047
S11303705D0F0000004400415110000070B50020E2
S1130380084B98470500084CFA218900A047074B01
S1130390186007492800A047064B18600522064B41
S11303A01A6070BD151B0000853F0000000000208E
S11303B040420F000400002010E000E030B5084B7C
S11303C01C68084A002580214902013807D3002C03
S11303D0FBD05460956013680B42FCD0F5E730BD48
S11303E00000002010E000E0014B18607047C04698
S11303F038000020024B1B68C00118184254704793
S113040038000020024B1B68C0011818405C70477C
S113041038000020F8B5CE46474680B58418802CB5
S113042003DD80225242121AD2B2002A37D0CD08FC
S1130430EC00091B01278F403900FFB2012B19D0B2
S1130440002B30D0022B2AD10138C6B29219D4B273
S1130450204B9946204B984621002800C8477840F5
S1130460C2B2002321002800C047013CE4B2B442D8
S1130470F2D114E00138C6B29219D4B2154B9946A0
S1130480154B984621002800C8473843C2B20023C0
S113049021002800C047013CE4B2B442F2D10CBCB4
S11304A090469946F8BD0138C6B29219D4B2094BA8
S11304B09946CF43084B984621002800C847384046
S11304C0C2B2002321002800C047013CE4B2B44278
S11304D0F2D1E4E7250800001D070000F0B5CE4680
S11304E000B582B001901E00002A31D04B1ED218F4
S11304F0D2B2914230D0131C3F2A00D93F23DBB241
S1130500CC08DF0807221140FF2005008D40E9B226
S11305101340D31A1841C3B29946BC4220D03300C9
S11305200A0001992000124DA8470134A74209D9B5
S11305300F4D3300FF2201992000A8470134E4B293
S1130540A742F6D833004A4601993800084CA04720
S113055002B004BC9146F0BD3200064B9847F7E761
S11305601A000A40330001992000014CA047EFE72C
S113057031080000BD070000F0B583B004000E0090
S1130580009308AB1F783B0001920D4DA847009BD8
S1130590591E7118C9B23B00019A2000A8473B00BC
S11305A0009A31002000074DA8470198013820180F
S11305B0C0B23B00009A3100A84703B0F0BDC0466A
S11305C015040000DD040000F0B583B00090019232
S11305D008AA1778002B0DD00139CEB29B19DCB2D2
S11305E0054D3B00019A21000098A847013CE4B264
S11305F0B442F6D103B0F0BD15040000F0B5DE46F8
S113060057464E464546E0B585B004008846150079
S11306109B465B7A5A46127A002100912900404693
S1130620284EB0475B461B78002B06D005B03CBC77
S113063090469946A246AB46F0BD5B461A7AD3086B
S1130640520700D001335A46527A92465A46977A54
S1130650E71B524657435F43BFB25B465B689C4609
S1130660674402954346039320E06BB2002B0DDBF5
S11306700134E4B26D00EDB2A6420DD04346E31A54
S11306804A461A42F1D13D780137EEE70122029938
S113069020000D4B9847EBE7029B0133DBB202933A
S11306A05346013BDBB29A46002BBFD05B461E7A11
S11306B0002EF1D04644F6B2039C00250723994648
S11306C0DCE7C046C9050000BD070000F0B5C6461A
S11306D000B582B0040090461F000D00019109E0AE
S11306E07A7A01324244D3B29846019D0134237888
S11306F0002B0DD020780A28F2D00D28F6D03B002C
S113070042462900044EB0473B7AED18EDB2EDE7BE
S113071002B004BC9046F0BDFD050000F8B504002D
S11307200F001500002B03D10D4B9847A84215D09C
S11307302A00390020000B4B98470F263440B02084
S11307402043094CA0477806400F10231843A047C4
S113075030003840A0472800044B9847F8BDC046F5
S113076005040000F503000015010000310300003A
S1130770F8B50D480D4B98470D4B984740200D4B4D
S11307809847002500260C4F340001233200210035
S11307902800B8470134E4B2802CF6D10135EDB21B
S11307A0082DF1D1F8BDC0463C000020E90300004B
S11307B061010000150100001D070000F0B5C646E8
S11307C000B50400150043B2002B01DB3F2902D918
S11307D004BC9046F0BDCF08FB00C91A01268E4028
S11307E0F3B29846010038000C4B98470200012DE3
S11307F009D0002D0BD0022D0CD00023210038008D
S1130800074CA047E4E743460343DAB2F5E7B043B5
S1130810C2B2F2E743464340DAB2EEE70504000011
S11308201D07000010B5014B984710BD05040000DA
S1130830F8B504000D0017001E000C4B9847020089
S1130840012E09D0002E0AD0022E0BD0002329003D
S11308502000074CA047F8BD3843C2B2F6E7B843BE
S1130860C2B2F3E77840C2B2F0E7C0460504000024
S11308701D0700000C4B1B68002B06D1EFF31083FF
S1130880002B07D00022094B1A70074A1368013362
S11308901360704772B6BFF35F8F0022044B1A7067
S11308A00132024B1A70F0E73C040020400400209F
S11308B014000020084B1A68013A1A601B68002BC8
S11308C009D1064B1B78002B05D00122044B1A706A
S11308D0BFF35F8F62B670473C04002040040020E1
S11308E014000020F0B583B001AC01256570002729
S11308F0A770257021001320064EB04780221203F2
S1130900054B9A612770657021001C20B04703B025
S1130910F0BDC0461D0900000044004100B583B08D
S113092001AB80221A700A785A704A789A708A78D1
S1130930DA701900014B984703B000BD251D000073
S1130940F0B5DE4657464E464546E0B587B080468C
S1130950049116001F000022002300218B463F242F
S113096001202100009601975C46039444460594B7
S113097013E02024641A0500E540A84614E0009C16
S1130980019D121BAB415C464D462C43A346039C80
S113099045462C430394013925D3202464420C1981
S11309A0E7D40500A540A84604008C40A14692184F
S11309B05B4114001D00059E4F463E40B446049E14
S11309C047463E40B246664657463E4303D006007D
S11309D0264332002B00009C019D9D42DBD8CED1E2
S11309E09442D8D8CBE7039B5846190007B03CBCC7
S11309F090469946A246AB46F0BD10B5490840233F
S1130A000024814202D2180010BD1C00091A631C84
S1130A109BB28842F9D94023FF2CF4D814800023D8
S1130A20F1E70000F0B583B00F00160008AA1178B2
S1130A3004004C434022BC4202D9100003B0F0BD74
S1130A40002B14D1020008000021194CA04701001A
S1130A503A0000230020174CA04700220123121A59
S1130A608B41120C1B041A4332800022E5E700225A
S1130A70012BF9D10A00002300210D4CA0470200EC
S1130A800B0000920193380000210A4CA047050096
S1130A9080239B0140229842CFD8790FF800009A16
S1130AA0019BA047EA00821AD2B252032A43DBE731
S1130AB09D4000004109000010B582B004000E4BB7
S1130AC01B78002B07D0002905D10B4B5B788342A0
S1130AD010D01D200CE001A90C701320074B98477F
S1130AE01320074B9847044B5C7001221A700020B6
S1130AF002B010BD0020FBE7440400202D1C0000C0
S1130B00A11B0000404B984231D00AD93F4B984278
S1130B104DD03F4B98425AD03E4B984237D000209C
S1130B2070473D4B98420CD03C4B9842F7D1012979
S1130B3017D000295DD0022915D0032915D0002033
S1130B40EEE7012907D0002951D0022905D0032955
S1130B5005D00020E4E73248E2E73248E0E73248D3
S1130B60DEE73248DCE73248DAE73248D8E70129E1
S1130B7007D000293FD0022905D0032905D0002041
S1130B80CEE72D48CCE72D48CAE72D48C8E7012910
S1130B9007D0002931D0022905D0032905D000202F
S1130BA0BEE72848BCE72848BAE72848B8E701293F
S1130BB007D0002923D0022905D0032905D000201D
S1130BC0AEE72348ACE72348AAE72348A8E701296E
S1130BD007D0002915D0022905D0032905D000200B
S1130BE09EE71E489CE71E489AE71E4898E71E4861
S1130BF096E7032094E71D4892E71D4890E71D48B7
S1130C008EE71D488CE7C0460010004200180042E1
S1130C10001C00420014004200080042000C004284
S1130C2003000500030006000300070003000100A1
S1130C3003001E0003001F0002000D0002000E004E
S1130C4002000F0003001100030012000300130050
S1130C5005003F0005003E00050052000300170098
S1130C6003001800030019000300040002000C0034
S1130C7003001000050053000300160030B587B0D0
S1130C800B4B6A4632CB32C232CB32C2009B834218
S1130C900BD001239A0069465258824206D0013390
S1130CA0062BF7D1002007B030BD0023D8B2FAE7F5
S1130CB0F043000070470000F0B50A4B1B78002B8E
S1130CC00CD1094F094E0A4D0024DE515A19146003
S1130CD00433182BF9D10122024B1A708000024B05
S1130CE0C150F0BD4604002048040020B50C0000AB
S1130CF03841002000B583B009236A4613700133DC
S1130D005370013393700133D37001331371013382
S1130D105371034B98476B46185603B000BDC04649
S1130D207D0C000010B5024B1B680020984710BDD5
S1130D304804002010B5024B5B680120984710BDA1
S1130D404804002010B5024B9B680220984710BD50
S1130D504804002010B5024BDB680320984710BDFF
S1130D604804002010B5024B1B690420984710BDAD
S1130D704804002010B5024B5B690520984710BD5C
S1130D8048040020F0B58BB005000C001600296063
S1130D900B681C209B0701D50BB0F0BD0B681738FE
S1130DA0DB07F9D40800604B9847604A116A871C36
S1130DB00123BB400B43136209A92427F35D0B7085
S1130DC01430C3B201931800594B98470198594BFA
S1130DD09847F05D0021584B98473378012B38D061
S1130DE02B000C3329002831002204C38B42FCD190
S1130DF00023EB62AB620024AB862B863633EC54C3
S1130E000133EC540133EC54353B6B722C7128687C
S1130E10454B984707004949494B9847BF00494B00
S1130E20FD502F6804AB80221A705C707F3A9A7070
S1130E30DC703378002B02D1002204AB9A70B36AC1
S1130E400593F36A0693336B0793736B089300243B
S1130E500BE023680C2213432360C1E738003A4BAC
S1130E6098470AE00134042C10D0E1B2A30002AA8E
S1130E700C201218D0580028F0D0431CF2D004A93A
S1130E800870000CC0B2314B9847EBE733786B71B4
S1130E90337CAB71B37CEB71337D2B72002202ABDC
S1130EA0DA803378012B28D07368B2681343F26870
S1130EB01343317C727C002A03D1254A927892072D
S1130EC001D580221343B27C002A02D080229202F0
S1130ED01143F27C002A02D0802292001143327D19
S1130EE0002A02D08022920111433A6813433B60E6
S1130EF07B680B437B6000204EE728680A4B9847C9
S1130F001430C0B2134B9847010002AB9A1DB0696C
S1130F10114B984703001720002B00D03CE702AB8D
S1130F2006331B783B73BFE77D0C000000040040D0
S1130F302D1C0000A11B0000B90A00001D110000B7
S1130F40B90C000038410020050B0000251D0000ED
S1130F5000200041491C0000FB09000010B5447941
S1130F601523012C01D0180010BD047A0023002C95
S1130F70F9D1002A58D04B78002B44D003681B7E4B
S1130F80DB0710D40A78D1090023002904D15309BE
S1130F90DB012E498C4663441F21114001228A4003
S1130FA09A610523DFE70A78D4090023002C04D1D1
S1130FB05309DB01254CA44663441F241440012239
S1130FC0A2405A6103681A7ED20701D58A789A62D0
S1130FD0C2790023002AC6D102680421137E0B4281
S1130FE0FCD0117E00234907BDD5538B5B0701D587
S1130FF0042353838379012B02D0936A0023B2E73D
S1131000936A0023AFE70A78D1090023002904D1A9
S11310105309DB010D498C4663441F211140012211
S11310208A405A6100239EE70A78D10900230029E7
S113103004D15309DB0105498C4663441F21114047
S113104001228A409A6100238DE7C0460044004192
S1131050F0B5DE4657464E464546E0B583B08A466F
S11310603823C45C333B052C02D01233002A4BD105
S1131070180003B03CBC90469946A246AB46F0BD6E
S11310800237BFB241465346595C09025B460B43E3
S113109018E08379012B2AD0936A013EB6B26645E3
S11310A027D00268137E2342FCD07B1C9BB2984657
S11310B05346DB5D9B4681790129E1D06946CB80AB
S11310C0CB884746117E214202D0DB05DB0D9362BB
S11310D0C379002BE1D00268137E2B42FCD0137E2F
S11310E02B42DAD0538B2B42D3D05583D1E7936A6A
S11310F0D3E742790023012ABAD1016801320B7E79
S11311001342FCD00023B3E7013A96B2002701242E
S11311100425014B9C46C4E7FFFF0000F8B580009E
S1131120704BC45826683723E75C3622A25C17400C
S1131130337EB57D1D40EB0702D56379012B1ED0AC
S11311406B0711D5738B5B075AD5637A012B08D0D3
S11311501E223823E254353B6372023333753B0756
S11311604AD4B36A04237383AB0703D56379012B91
S113117000D197E06DB2002D00DAA9E0F8BD637AE2
S1131180002B22D0637A002BDAD02168E26A13782C
S1131190DBB2501CE062A079012827D09BB2DB05AA
S11311A0DB0D8B62A38E013B9BB2A386A38E9BB205
S11311B0002BC5D101333375637A012BC0D1E37998
S11311C0002BBDD10233B375BAE7474B1B88B3621A
S11311D0638E013B9BB26386638E9BB2002B01D16D
S11311E0013333756379012BCCD0A9E75078000221
S11311F003430232E262D2E72000A3699847B0E7D2
S1131200637A012B28D023689B6ADB05DB0DDAB2F5
S1131210A16A0A70A26A511CA162A179012934D081
S1131220238E013B9BB22386238E9BB2002B00D0DE
S11312309AE700223833E254343B3375637A022B45
S113124029D0637A002B00D08EE7BB0700D48BE74C
S113125020002369984787E723689B6A638E013BD4
S11312609BB26386638E9BB2002B00D07CE7043371
S1131270337500223433E254353B6372FB0700D4E8
S113128072E72000E36898476EE71B0A5370A36A6D
S11312900133A362C4E77B0700D465E720006369D8
S11312A0984761E7637A012B00D063E7E379002B69
S11312B000D05FE7023333750133637200223533A4
S11312C0E254FB0700D455E72000E368984751E750
S11312D08023337533767B0600D44FE7636A20009E
S11312E098474BE73841002050410020F0B5DE46D6
S11312F057464E464546E0B591B005000C00160031
S113130029600800BC4B9847020023680520DB07CE
S113131006D511B03CBC90469946A246AB46F0BDFA
S1131320236817309B07F4D4B449086A971C012337
S1131330BB4003430B620FA92D27F35D0B701432DE
S1131340D3B202931800AE4B98470298AD4B98471E
S1131350F05D0021AC4B9847F37A6B712423F35C66
S1131360AB712523F35CEB71F37E2B72337F6B72CD
S11313702B6898461800A04B9847143000220E237F
S113138006A98C4663441A80328A02928023DB01C8
S11313909A4200D19EE00FD9C023DB01029A9A42FF
S11313A000D192E080231B029A4200D01FE1032364
S11313B006930023079308E080239B019A4200D000
S11313C015E1102306930F3B079333680593F368E5
S11313D0039373690493337E9B462623F35C9A46F6
S11313E073689946002B00D1A0E080235B059945E2
S11313F000D184E0737E002B02D0B37E4246937307
S11314002A68029FD369002BFCD10E3306AA9446A6
S113141063441B8842469381059B039A1343049AB1
S113142013434A4613431F435B461B021F43534661
S11314305B071F432723F35C002B01D104331F43B5
S1131440737E9B02327F52021343727F1202134354
S11314502422B25C520413432522B25C12041343C7
S1131460B17AF27A114319433389FF2B00D181E019
S113147080225204174319432C23F35C002B03D11D
S1131480624B9B789B0701D580231F432A68D3694D
S1131490002BFCD1434659602A68D369002BFCD148
S11314A043461F600EAB80221A7000225A70DA7015
S11314B09A70336B0A93736B0B93B36B0C93F36B4C
S11314C002930D9300270AAE63E008230693073BBB
S11314D007937AE733680593F36803937369049376
S11314E0337E9B462623F35C9A4673689946002B09
S11314F018D080235B05994501D0002025E02723DF
S1131500F35C002B00D075E7336A1F00C0B2404B78
S1131510984701000E2206AB9C46624438003D4BBE
S1131520984712E008230693002307932723F35CCC
S1131530002B0ED0069B0093079B0E2206A98C4617
S11315406244B16A306A344FB847002800D0E0E6FC
S113155050E7336A1F00C0B22D4B98470100069B29
S11315600093079B0E2206A88446624438002A4F43
S1131570B847EAE7F37E002B00D17DE78023DB0444
S11315801F4379E72000254B984707E00137042FD4
S11315900DD0F9B2BB0098590028F3D0431CF5D004
S11315A00EA90870000CC0B21D4B9847EEE700234B
S11315B0EB602B616B61AB61EB612B62AB626B62C5
S11315C00022EB85AB853033EA540133EA5401330E
S11315D0EA540133EA542868074B98470400114938
S11315E0114B9847A400114BE550002091E61023BD
S11315F0069300230793E8E67D0C000000040040F6
S11316002D1C0000A11B0000B90A000000200041AD
S1131610491C0000FB090000250A0000050B00001E
S1131620251D000031160000B90C000038410020CF
S1131630F8B58000624BC5582C68E369002BFCD1D7
S1131640237EA67D1E403023EB5C3122AF5C1F401D
S1131650F30722D5EB8D9BB2002B1CD0AA6A13781A
S1131660DBB2511CA962697901290ED09BB2DB055A
S1131670DB0D2385EB8D013B9BB2EB85002B0CD15D
S1131680013323750133A37507E0517809020B4335
S11316900232AA62EBE701232375B30706D50223BE
S11316A0237500223133EA54FB071AD4730765D536
S11316B0AB8D9BB2002B5FD0638BDBB21A0714D4C3
S11316C03F221340002B34D09A0711D51A2232231B
S11316D0EA54303B63837B0750D528006B699847F5
S11316E04CE02800EB689847E0E737221340E9E72D
S11316F05A0705D51E223223EA542E3B6383EAE7B8
S1131700DA0705D513223223EA54313B6383E2E737
S1131710DA0605D542223223EA54223B6383DAE710
S113172020221A42D7D021323223EA54123B638357
S1131730D1E7238DDB05DB0DDAB2696A0A706A6AC8
S1131740511C69626979012910D0AB8D013B9BB2B0
S1131750AB85002B12D10433237500222E33EA54B7
S1131760BB070BD528002B69984707E01B0A537069
S11317706B6A01336B62E8E704232375F30604D52F
S1131780102323752376FB060ED4B30604D5202339
S1131790237523763B070BD4330704D5082323751D
S11317A02376BB0608D4F8BD2800EB699847ECE71C
S11317B02800AB699847EFE72B6A28009847F2E7BF
S11317C03841002010B5082803D880001C4B1B5852
S11317D09F46002032E01B4B18692FE01A4B1B6A0E
S11317E09B059B0F1948D84028E0164B586925E003
S11317F0144B1B6800209B0720D513491022CB688B
S11318001A42FCD00F4B1A6824231340042B01D036
S11318100F4813E000200F4B98470A4B9B681B04AA
S11318201B0C58430AE05023074AD35C00205B0793
S113183004D5044BD86801E08020000210BDC046E6
S113184008440000600400200008004000127A00F0
S1131850006CDC02491C000070B50C490B6A04786A
S1131860857840780122104080014026B343034329
S11318702A40D201802083431343032222401202D0
S11318800348034013430B6270BDC0460008004088
S1131890FFFCFFFF082803D88000254B1B589F46F8
S11318A0172044E0234A136A02210B4313620020E9
S11318B03DE0204A936902210B439361002036E006
S11318C01C4A138A02210B43138200202FE0194A79
S11318D0938A02210B439382002028E016490B6867
S11318E0022213430B60134B9A8419000E32CB6807
S11318F01A42FCD0104A91680E4BD96252689A621F
S113190000229A8419001032CB681A42FCD00A4B88
S11319101B689BB2074A9384002008E005494422CF
S11319208B5C022003438B54002000E000207047AE
S11319302C4400000008004060040020F0B5C646B6
S113194000B584B0C222D200214B9A60214A536868
S11319501E218B43536001236A46137000241E4DDD
S1131960E0B26946A8470134252CF9D103A8002424
S113197044700123984683700470184B98470620DE
S1131980174B9847174B98476B465C7006271F7098
S11319901C725C721023019369460320124EB047F7
S11319A00320124DA847124B1C725C729C72DC72AD
S11319B0434601936B465C701F701C725C726946EF
S11319C00020B0470020A84704B004BC9046F0BDF6
S11319D000080040004000412D1C00005918000080
S11319E095180000F5190000191A0000D11A00001A
S11319F000040040064A936908210B4393610122C5
S1131A00044B1A7019000B781342FCD17047C0467E
S1131A1000040040000C004070B5060004000D787E
S1131A202D0205434B78002B02D08023DB021D439B
S1131A304B7A002B02D080231B031D4348680128E6
S1131A4010D9431E184234D1022830D9022300226F
S1131A5001325B009842FBD8120232431400802307
S1131A605B031D430B7A002B02D080239B031D4391
S1131A70134A53785BB2002BFBDB124B9847124B93
S1131A801E700F4A53785BB2002BFBDB0C4B9C603F
S1131A901A0053785BB2002BFBDB094A53688021A0
S1131AA049020B401D435560084B984770BD002206
S1131AB0D2E70402344380239B021D43D2E7C0468D
S1131AC0000C004075080000080C0040B508000038
S1131AD010B504000B4A53785BB2002BFBDB0A4BB6
S1131AE098470A4B1C70074A53785BB2002BFBDB08
S1131AF0044A516880235B020B435360044B9847AC
S1131B0010BDC046000C004075080000040C0040E5
S1131B10B508000070B504001A4A53785BB2002B74
S1131B20FBDB194B9847194B1C70164A53785BB270
S1131B30002BFBDB134E7068C004C00E144B984797
S1131B400500124B1C707668F602F60F114B1C70E0
S1131B500C4A53785BB2002BFBDB0A4B9C682402D3
S1131B60240C0D4B9847002E07D1012C07D92100D6
S1131B7028000A4B9847050001E00134E54028009D
S1131B8070BDC046000C004075080000040C004005
S1131B90C5170000080C0040B5080000853F000090
S1131BA010B50400064B9847064B1C70064A538830
S1131BB08021C9010B435380044B984710BDC04694
S1131BC075080000020C0040000C0040B50800003D
S1131BD010B504000F4B98470F4B1C700F4A5388E5
S1131BE01B05180F53880E490B40538053880D4929
S1131BF00B40538011008022D2014B881342FCD148
S1131C0006494A8803020648024013434B80064BA8
S1131C10984710BD75080000020C0040000C0040FD
S1131C20FFF0FFFFFFBFFFFFB508000010B50C7801
S1131C3024020443024B9847A4B2024B5C8010BDBB
S1131C40D11B0000000C004010B50400064B98475F
S1131C50064B1C70064B5C882405240F054B9847E3
S1131C602000054B984710BD75080000020C004089
S1131C70000C0040B5080000151B000030B5D378F7
S1131C80002B35D11378802B29D01B0680246402C5
S1131C90234354780225AC4306D19478002C20D1F8
S1131CA08024A402234341605478013C012C1CD9B4
S1131CB00D042D0CA024E4052C431C4384620D0C5C
S1131CC0D02424062C431C438462D478002C22D1D3
S1131CD05B031CD59378012B1ED0416117E00023D0
S1131CE0D7E7C024E4022343DDE70D4C2340DFE7BC
S1131CF041600C04240CA023DB05234383620C0CF9
S1131D00D0231B0623438362D378002B03D153785B
S1131D10013B012B02D930BD8161F8E78160FAE70C
S1131D20FFFFFBFF10B50A00C1090023002904D1FD
S1131D304309DB0105498C4663441F2420400121EB
S1131D4081401800024B984710BDC0460044004132
S1131D507D1C00007047000010B5054B9847054BEB
S1131D609847054B9847054B9847054B984710BD36
S1131D703D190000E5080000551D0000551D000038
S1131D80551D0000FEE70000F8B52A4A2A4B9A4286
S1131D9011D01A00294B9A420DD2294A03339B1AB7
S1131DA09B0801339B000022234822498C5884500D
S1131DB004329A42FAD1234A234B9A420AD2D34399
S1131DC021495B1803218B4304339B18002102C271
S1131DD09342FCD11D4AFF211D4B8B439360FD3977
S1131DE090235B001B4AD1501B4AD3780325AB4395
S1131DF002242343D370D3780C27BB4308263343F0
S1131E00D370164B987B3022904320221043987352
S1131E10997BB943314399739A7BAA4322439A73BA
S1131E200F4A536880210B4353600E4B98470E4B67
S1131E309847FEE77C450000000000201C000020BD
S1131E40040000201C0000205441002000ED00E0AC
S1131E5000000000007000410050004100480041B3
S1131E6000400041F1400000613F000003000833DE
S1131E704360012252428260C36003610023036015
S1131E80704700230361704743684B609A688A6017
S1131E909A68516099600861036801330360704770
S1131EA030B50C6802000832631C02D1026904E0F8
S1131EB01A0053681D68AC42FAD253684B609960AB
S1131EC08A605160086103680133036030BD0369AF
S1131ED04268816891608268416851605A689042A2
S1131EE006D0002202611A68013A1A601868704725
S1131EF082685A60F5E7000082B000230193064B24
S1131F001B68013301D072B6FEE772B6019B002B49
S1131F10FCD002B07047C04618000020000000004A
S1131F200B4A13681868203080F30988022080F374
S1131F301488BFF36F8F3FBCAE4608BC04BC62B6C6
S1131F401847C046C046C046C046C046C046C04604
S1131F50183F002010B5031F802464041C60043B58
S1131F601960043B02491960143B1A60403810BDE3
S1131F70F91E00007047000070B5124B1968FF226B
S1131F8012040A431A601968FF2212060A431A60EF
S1131F900D4D00242C600D4B1C6000200C4B984709
S1131FA0C8210C4B984701380B4B186007232B6052
S1131FB00A4B1C600A4B98470A4B98470A4B9847B0
S1131FC0002070BD20ED00E010E000E018E000E02B
S1131FD0151B0000853F000014E000E018000020FD
S1131FE0211F000059300000F91E00008022520514
S1131FF0034B1A60BFF34F8FBFF36F8F7047C04618
S113200004ED00E072B6044A136801331360BFF3B1
S11320104F8FBFF36F8F704718000020064B1B686B
S1132020002B01D172B6FEE7013B034A1360002B7B
S113203000D162B67047C04618000020EFF310804C
S113204072B6704780F310887047000000000000EB
S1132050EFF309800E4B1A6820381060F0C0444634
S11320604D4656465F46F0C008B572B600F0F4FF20
S113207062B60CBC116808681030F0C8A046A946C6
S1132080B246BB4680F309882038F0C81847C046DA
S1132090183F002010B5074B98470400064B98479B
S11320A0002803D080225205044B1A602000044B00
S11320B0984710BD3D200000F92D000004ED00E01C
S11320C04520000070B50400430702D007239C4359
S11320D00834114B9847114B1B68002B10D0104B40
S11320E01B68E4180F4A944211D8A34211D20B4A38
S11320F01568ED180A4B1C600B4B9847280070BDFF
S113210007220A4B08339343044A1360E7E7002588
S1132110F2E70025F0E7C046DD2D0000780400203A
S1132120143F00208F3A0000192F00007C04002087
S1132130002801D072B6FEE77047000010B5040015
S1132140034B9847A46B034B98476042604110BD12
S1132150052000001D20000070B504001600856BEA
S1132160026C002A0BD100202368834204D16068EA
S1132170164B9847002363600135A56370BD002E9C
S11321800ED18068124B9847A368226C944663442E
S1132190A360002062689342EED32368A360EBE758
S11321A0C0680B4B9847236C5B42E268D218E2602C
S11321B021688A4203D2626894466344E360002043
S11321C0022ED9D18542D7D0013DD5E7F5330000A1
S11321D03941000070B582B001900A00846C002C73
S11321E005D0A16BE36B994203D372B6FEE772B6D6
S11321F0FEE7A16B00268B4202D8300002B070BD0E
S11322004523E55C6DB201A920000A4B98470600FE
S11322106B1C0AD1636A002BEFD020002430064BDC
S113222098470028E9D00126E7E701356DB2452338
S1132230E554E2E7592100002132000010B50C00FA
S1132240026C002A0BD0C3689B18C36041688B42A0
S113225001D30368C360C1682000014B984710BDD7
S113226039410000F8B50700254B98474523FC5C2D
S113227064B2002C1CDD234E234D0BE07B6A002B43
S113228016D038002430A84700280ED1013C64B28F
S1132290002C0DD0BB6C002BF0D000213800B047CF
S11322A00028F3D0194B9847F0E7184B9847EDE70F
S11322B0FF224523FA54164B9847114B9847442361
S11322C0FC5C64B2002C14DD3B69002B11D03D0092
S11322D010350D4E06E0013C64B2002C09D03B6978
S11322E0002B06D02800B0470028F4D0074B9847AD
S11322F0F1E7FF224423FA54054B9847F8BDC04642
S113230005200000D52100002132000031330000F7
S11323101D20000070B504000D00002821D0174BCB
S113232098472268216CE36B4B43D018606000200F
S1132330A063A2605B1AD318E360FF234422A35472
S11323400132A354002D11D12369002B05D02000A4
S113235010300B4B9847002805D10A4B98470120B1
S113236070BD72B6FEE7084B9847F6E720001030C0
S1132370064DA84720002430A847EEE705200000BA
S1132380213200001D200000ED1F00006D1E000022
S113239070B506000D00002801D172B6FEE70800F2
S11323A070434C300A4B9847041E0ED0002D03D0C6
S11323B003004C33036000E02060E66325640121E0
S11323C02000044B98470023A364200070BDC0463E
S11323D0C520000015230000F0B5CE46474680B561
S11323E085B004000F0001921D0000280CD00029C4
S11323F00CD0022D0FD04E4B9847002810D1019BD2
S1132400002B11D072B6FEE772B6FEE7036C002B08
S1132410EFD072B6FEE7E36B012BECD072B6FEE7A9
S11324200026444B98464CE00026FAE72A0039007F
S11324302000414B9847A36C002B0FD029002000AB
S11324403E4B9847002801D03D4B98473D4B984759
S1132450012005B00CBC90469946F0BD636A002B80
S113246008D020002430384B98470028EED0344B55
S11324709847EBE70028E9D0314B9847E6E7314B22
S113248098470020E5E72F4B984701A902A82F4B56
S11324909847002844D1274B9847A36B9946E66B8D
S11324A0284B9847B14535D1200010300199284B6D
S11324B098472000274B9847274B9847002826D059
S11324C00126C047A36BE26B9342AFD3022DADD07C
S11324D0019B002BD3D0002E02D102A81F4B98479A
S11324E0184B98471E4B9847124B98474423E35C7C
S11324F05BB2013302D100224423E2544523E35C5E
S11325005BB20133BFD100224523E254BBE70C4B3D
S11325109847D5E720000F4B98470F4B9847CFE7D4
S113252020000C4B98470C4B9847002091E7C0467D
S11325303D3300000520000059210000D521000092
S1132540ED1F00001D20000021320000C1320000F8
S1132550BD31000065220000192F0000A9320000DF
S1132560DD2D000070B5020000210120064B9847C4
S1132570041E07D0002343600360C36000220021CF
S1132580024DA847200070BD91230000D92300000C
S1132590F0B583B00400019116001D00002812D08C
S11325A0019B002B11D0022D14D0284B984700908A
S11325B0A36BE26B9A422FD800250098244B9847CE
S11325C0280003B0F0BD72B6FEE7036C002BEAD01E
S11325D072B6FEE7E36B012B1AD072B6FEE7636AAC
S11325E00125002BE9D0200024301A4B98470028FD
S11325F0E3D0002E0AD001233360DEE77B1C5BB2FC
S11326004522A3540125D8E70125D6E70125D4E7BF
S11326100E4B98470090A36B4523E75C7FB22A00DA
S1132620019920000C4B98477B1CE7D1A36C002B2D
S1132630D5D029002000094B984701250028BCD09B
S1132640002EE1D001233360B7E7C0463D200000EF
S1132650452000002132000059210000D52100004E
S1132660F0B5C64600B584B004000F0001920028FE
S11326700AD000290AD0424B984700280BD1019B6D
S1132680002B0CD072B6FEE772B6FEE7036C002B8B
S1132690F1D072B6FEE700263A4B98462FE00026AA
S11326A0FAE739002000384B9847013DA5632369B8
S11326B0002B07D020001030344B9847002801D05D
S11326C0334B9847334B9847012004B004BC9046E1
S11326D0F0BD304B98470020F7E702A82E4B9847EF
S11326E016E000224423E2541DE000224523E25474
S11326F01EE02000294B9847294B98470126C047E4
S1132700A56B002DCDD1019B002BE2D0002EE4D08F
S1132710204B9847234B98471A4B98474423E35C34
S11327205BB20133DDD04523E35C5BB20133DCD023
S1132730184B984701A902A81B4B9847002813D1AE
S113274020001A4B98470028D3D020002430019948
S1132750174B98472000114B9847114B9847002876
S1132760CCD10B4B9847C9E720000C4B98470C4B36
S1132770984720000D4B98470028BFD00020A4E7BD
S11327803D330000052000003D22000021320000FE
S1132790ED1F00001D200000A9320000652200008A
S11327A0192F0000DD2D0000C13200003D21000082
S11327B0BD310000F0B585B0041E019104D0036C56
S11327C0002B03D072B6FEE772B6FEE7504B984773
S11327D0002804D1019B002B05D072B6FEE700252A
S11327E000264C4F48E000250026FAE7013BA3638E
S11327F02368002B02D1484B984760602369002B63
S113280007D020001030454B9847002801D0444B96
S11328109847444B98470125280005B0F0BD002D8A
S113282001D072B6FEE73F4B9847F5E702A83E4B4E
S113283098472AE000224423E25431E00022452351
S1132840E25432E0334B98476068384B98470500B0
S1132850344B984739E02000354B9847354B98471F
S113286009E02000324B9847324B98472000324B06
S11328709847002838D10126B847A36B002BB5D15F
S1132880019B002BCBD0002ED0D0264B98472B4B4E
S11328909847204B98474423E35C5BB20133C9D08B
S11328A04523E35C5BB20133C8D01E4B984701A9B2
S11328B002A8234B98470028D3D120001E4B9847E9
S11328C00028C8D02368002BBCD0200024300199F4
S11328D01C4B98472000164B9847164B98470028E6
S11328E0C9D10F4B9847C6E7002D00D194E7094B97
S11328F09847636A0021002B03D0236B1B680531C2
S1132900C91A6068104B9847064B9847002583E71F
S11329103D33000005200000FD340000213200009A
S1132920ED1F00001D200000A93200005D330000EF
S113293065220000192F00003D210000DD2D00005C
S1132940C1320000BD3100007134000070B50400D4
S11329500D001600114B98474423E35C5BB201332E
S11329600DD04523E35C5BB201330CD00C4B98478C
S1132970A36B002B0BD020000A4B984770BD00229C
S11329804423E254EDE700224523E254EEE720001D
S1132990243032002900044B9847ECE7052000005E
S11329A01D20000065220000E931000000280CD041
S11329B0084A00214369934205D1836A064A934237
S11329C005D0594259410800704772B6FEE700210C
S11329D0F9E7C046EC3F0020D43F0020084B1B68B9
S11329E01B68002B07D0064B1B68DB68DB685A6842
S11329F0044B1A60704701225242024B1A60F9E7F5
S1132A001C3F0020CC3F0020F0B5D6464F4646463A
S1132A10C0B5144B9946144B9846144F144B9A4620
S1132A204B461B68002B16D0C047FB68DD68281D89
S1132A30D047104A1368013B13600A4C2368013BDA
S1132A4023600D4B9847286B0C4EB0472800B047C5
S1132A502368002BE8D10A4B1B68012BE0D9094BF2
S1132A609847DDE78C3F002005200000004000204F
S1132A70CF1E0000883F00201D20000031210000EF
S1132A80243F0020ED1F000070B504000D00174B1B
S1132A901E68174B18680430164B9847631C13D0F4
S1132AA03419134B1B685C60A64216D8124B186885
S1132AB00F4B19680431114B9847114B1B689C420A
S1132AC012D20F4B1C600FE0002DE9D0084B19689F
S1132AD004310C480C4B984706E00C4B1868044B27
S1132AE019680431054B984770BDC0461440002056
S1132AF0183F0020CF1E00001C3F0020A11E000034
S1132B00CC3F0020EC3F0020891E0000203F002025
S1132B10F0B5C64600B584B001900D00029397004D
S1132B2038005B4B9847061E00D181E04C20584B7F
S1132B309847041E00D178E00663381F3018072335
S1132B40984380462A782D33E2542B78002B0DD0FD
S1132B5001352300353320003C302A781A702A7856
S1132B60002A03D0013501338342F6D100223B23EE
S1132B70E2540A9F042F00D90427E762E763002682
S1132B802664231D03931800424DA84720001830E3
S1132B90A84724610523DB1BA361646266644823A0
S1132BA0E654029A019940463B4B984720600B9BA0
S1132BB0002B00D01C60394B9847394A1368013305
S1132BC01360384B1B68002B35D0374B1B68002B28
S1132BD007D1344B1B68DB6AE26A934201D8314B5C
S1132BE01C60324A136801331360E36A304A126886
S1132BF0934201D92E4A13609800C01880002D4BCF
S1132C00181803992C4B98472C4B9847264B1B6854
S1132C100120002B05D0234B1B68DA6AE36A9A4231
S1132C2031D304B004BC9046F0BD3000244B984727
S1132C3001204042F5E71B4B1C601368012BD0D1E7
S1132C401C4F38001F4EB04738001430B0473800CE
S1132C502830B04738003C30B04738005030B047D7
S1132C60194B98461800B047184F3800B047184819
S1132C70B0471848B0471848B047184B42461A6046
S1132C80174B1F60ADE7174B98470120C9E7C046B3
S1132C90C5200000831E0000551F00000520000011
S1132CA0883F0020183F0020E83F0020983F002084
S1132CB09C3F0020243F0020891E00001D200000AE
S1132CC0312100006D1E0000A03F0020B43F002011
S1132CD0D43F002000400020EC3F00201C3F002097
S1132CE0203F0020ED1F000070B5041E0DD0164BD0
S1132CF01B68984208D0154B98472000144B9847FE
S1132D00002804D1134B984770BD72B6FEE7251D09
S1132D102800114B9847E36A104A1268934201D97C
S1132D200E4A13609800C01880000D4B1818290033
S1132D300C4B9847044B1B68E26ADB6A9A42E1D366
S1132D40094B9847DEE7C046183F002005200000E5
S1132D50AD2900001D200000CF1E00009C3F002074
S1132D60243F0020891E0000ED1F000010B582B032
S1132D70114B019300230093642210491048114C15
S1132D80A047012803D0431C13D002B010BD0E4B42
S1132D9098470128F7D172B6012252420B4B1A60B0
S1132DA002320B4B1A6000220A4B1A600A4B9847F6
S1132DB0EBE772B6FEE7C046C83F0020504400006F
S1132DC0092A0000112B0000C1350000CC3F00206F
S1132DD0E83F002014400020791F0000024A1368D5
S1132DE0013313607047C046943F0020014B1868BC
S1132DF07047C04614400020F0B583B0384B1B68C0
S1132E00002B60D1374B1D6801351D60002D12D198
S1132E10354B1B681B68002B01D072B6FEE7324AA3
S1132E201168324B186810601960314A1368013315
S1132E301360304B9847304B1B6800249D4233D3BA
S1132E400024294F3B681B68002B29D0264B1B68A4
S1132E50DB68DE6873689D4232D3331D019318002A
S1132E60264B9847B36A002B03D030001830234B0D
S1132E709847F36A224A1268934201D9204A1360A0
S1132E809800C01880001F4B181801991E4B9847D2
S1132E901E4B1B68F26ADB6A9A42D3D30124D1E742
S1132EA001225242144B1A60184B1B68DA6A9300D1
S1132EB09B189B00134A9B58012B09D9012407E056
S1132EC00D4A1360F0E7124A1368013313600024BB
S1132ED0104B1B68002B00D00124200003B0F0BD70
S1132EE0943F0020144000201C3F0020203F00207D
S1132EF0D03F0020DD290000CC3F0020CF1E000081
S1132F009C3F0020243F0020891E0000183F002021
S1132F10903F002018400020F8B5304B1B68002B70
S1132F2001D172B6FEE72E4B98472C4B1A68013A32
S1132F301A601B680024002B03D12A4B1B68002B4A
S1132F4003D1294B98472000F8BD284D2F002B684A
S1132F50002B22D0FB68DC6820001830244B9847F3
S1132F60261D3000224B9847E36A224A1268934296
S1132F7001D9204A13609800C01880001E4B18180D
S1132F8031001E4B98471E4B1B68DB6AE26A9A426B
S1132F90DDD301221B4B1A60D9E7002C01D01A4B58
S1132FA098471A4B1C68002C0ED0194F154E01255A
S1132FB002E0013C002C04D0B8470028F9D0356069
S1132FC0F7E70022114B1A600E4B1B680024002BFC
S1132FD0B7D0104B98470134B3E7C046943F002064
S1132FE005200000883F00201D200000D43F002061
S1132FF0CF1E00009C3F0020243F0020891E0000BB
S1133000183F002018400020DD290000903F0020D8
S1133010F92D0000ED1F000010B5041E0FD0094B60
S11330201B68002B01D072B6FEE7074B98470021BE
S11330302000064B9847064B9847002801D1054BC2
S1133040984710BD943F0020DD2D0000892A000020
S1133050192F0000ED1F000010B5214B1B68002B39
S113306018D100221F4B1A601F4B1B689A00D218FC
S113307092001E495258002A10D1002B08D0013B5F
S11330809A00D21892005258002A07D1002BF6D188
S113309072B6FEE70122134B1A6010BD13489A0062
S11330A0D118890041184C6864684C60D2189200A9
S11330B00832821894420BD09A00D21892000B491D
S11330C08A185268D1680A4A1160074A1360E4E713
S11330D060689A00D218920004498A185060EBE79D
S11330E0943F0020184000209C3F0020243F0020F3
S11330F0183F002070B50500244B98472C1E1DD0A6
S1133100251D2800224B9847A36A002B03D02000DA
S113311018301F4B984729001E481F4B98474823D7
S1133120E35C012B0DD01D4B98471D4B1B68002BF6
S11331300BD11C4B1B689C420ED070BD194B1C68F4
S1133140DEE700224733E254EDE7104B9847164B75
S11331509847124B9847ECE7114B1B68002B08D09B
S1133160124B1B68002B01D072B6FEE7104B984738
S1133170E3E7084B1A680F4B1B689A4202D00E4BC8
S11331809847DAE70022074B1A60D6E705200000CB
S1133190CF1E0000EC3F0020891E00001D2000000F
S11331A0E83F0020183F0020DD290000943F002064
S11331B0ED1F0000883F00205930000010B50C00BE
S11331C0002801D172B6FEE7044B19681831044B8C
S11331D0984701212000034B984710BD183F002059
S11331E0A11E0000892A000070B50C0015000028FB
S11331F00DD0084B19681831074B9847002D01D0A2
S11332000124644229002000044B984770BD72B623
S1133210FEE7C046183F0020891E0000892A0000EE
S113322070B5C368DC68002C27D025001835280049
S1133230154B9847154B1B68002B20D1251D2800E2
S1133240114B9847E36A124A1268934201D9104A13
S113325013609800C01880000E4B181829000E4BFC
S113326098470E4B1B68E26ADB6A00209A4203D936
S113327001220B4B1A60013070BD72B6FEE72900C3
S11332800848054B9847ECE7CF1E0000943F002008
S11332909C3F0020243F0020891E0000183F00208E
S11332A018400020D43F0020034B1B680360034BED
S11332B01B6843607047C046D03F00201440002084
S11332C070B506000D0000281BD000291BD0134B3D
S11332D09847134B1A6871682B68581C1CD0114806
S11332E000683468844202D001248A4205D2521A0A
S11332F09A420AD300232B6001240B4B98472000E9
S113330070BD72B6FEE772B6FEE79B1A2B60300002
S1133310064B98470024F0E70024EEE70520000060
S113332014400020D03F00201D200000A9320000DE
S11333300122014B1A60704718400020054B1B689E
S11333400120002B04D0044B18684342584140002C
S11333507047C046E83F0020943F002070B5041E2B
S11333603CD0C26A1E4B1B68DB6A9A422ED2836928
S1133370002B05DB1A4B1B68D96A05235B1A836192
S113338093009B189B00174AD31862699A4205D090
S1133390134B1B68DB6AE36201201EE0251D280035
S11333A0114B98470E4B1B68DB6AE3620F4A1268A5
S11333B0934201D90D4A13609800C0188000094B4C
S11333C0181829000A4B9847012006E0044B1B6893
S11333D0C06BDB6A98428041404270BD0020FCE72C
S11333E0183F0020243F0020CF1E00009C3F0020F7
S11333F0891E000070B5041E2CD0184B1B6898421F
S113340001D072B6FEE7036C002B01D172B6FEE761
S1133410013B0364C26AC16B8A421DD00020002BA9
S113342017D1251D28000E4B9847E36BE362052254
S1133430D21AA2610B4A1268934201D9094A136055
S11334409A00D3189B000848C0182900074B9847D6
S1133450012070BD0020FCE70020FAE7183F00209F
S1133460CF1E00009C3F0020243F0020891E000046
S113347070B5041E0DD0036C002B01D172B6FEE7AB
S1133480C26B8A4200D20A00E16A914201D0012B48
S113349000D070BD144B1B689C4201D172B6FEE78C
S11334A0E262A369002B02DB05239A1AA2618B0056
S11334B05B189B000D4AD31862699A42E9D1251D15
S11334C028000B4B9847E36A0A4A1268934201D9D1
S11334D0084A13609800C0188000044B181829008B
S11334E0054B9847D5E7C046183F0020243F0020ED
S11334F0CF1E00009C3F0020891E0000054B1B6866
S1133500002B04D0034B1A68136C01331364014B72
S113351018687047183F002010B54160006191425F
S11335200BD8D21A012483699A4211D2011D094B86
S11335301868094B984700240AE09A4202D20124F1
S1133540994205D2011D054B1868034B9847002486
S1133550200010BD20400020A11E00001C400020BF
S113356070B50E4B98470E4B1B68002B02D00D4BC9
S1133570984770BD0C4D28000C4EB0470C4C2000F1
S1133580B0470C4B1D600C4B1C6000220C21022028
S11335900A4B9847024B1860E9E7C0460520000033
S11335A0504000201D200000244000206D1E00001B
S11335B0384000201C4000202040002091230000BF
S11335C010B582B00A4B98470A4B1B68002B0DD0EC
S11335D0094B019302230093002350220749084812
S11335E0084CA047002801D002B010BD72B6FEE717
S11335F06135000050400020544000208044000009
S11336002D370000112B000030B585B004001D00DB
S1133610002814D0134B1868002821D0019102927D
S11336200394052915DC104B9847022809D00D4B4B
S113363018680023002201A90C4CA0470EE072B6C2
S1133640FEE7084B18680023089A01A9074CA04715
S113365004E000232A0001A9054CA04705B030BDB1
S11336600020FBE7504000203D330000D923000038
S113367091250000F0B5D6464F464646C0B582B007
S11336808046234B98478246224B1B68984217D3A7
S11336900023424613601F4B52461A60504602B044
S11336A01CBC90469946A246F0BD002300933A0004
S11336B000212000184CA047002804D172B6FEE770
S11336C0164D174B99462B681A68002A17D0DB68E9
S11336D01F68DC68261D3000C8472000636A9847CD
S11336E0E369012BEFD1A369FB189F42DDD263602C
S11336F024610A4B186831000A4B9847E3E70A4AE9
S11337000649106808601360012342461360C2E74B
S1133710ED2D00004C400020093600001C40002024
S1133720CF1E0000A11E000020400020F0B589B08B
S1133730524F534B1B681A68002A0ED0DB681C6872
S1133740504B984705A8504B98470500059B002B04
S11337505FD1A04236D200220FE04A4B984705A819
S1133760494B98470500059B002B52D1474B1B68DA
S11337701B685A425A41D2B20024611B444B186858
S1133780444B9847444B984700283FD0404D434C06
S1133790002205A92868A0470028CAD0059B0393E6
S11337A0002BF5DB079E7369002B01D0301DB84751
S11337B004A8354B9847059B092BE9D89B00384A48
S11337C0D3589F46344B98472D4B1B68DB68DE6803
S11337D0301D2A4B9847F369012B03D0736A3000DC
S11337E09847D3E7B369E11823002A0030002D4D30
S11337F0A8470028F2D000230093220000213000C3
S1133800294CA0470028E9D172B6FEE7274B984718
S1133810BCE7214B9847B9E7069BB26994466344D9
S11338201900069B020030001E4CA0470028AED0B1
S11338303000736A9847F369012BA8D1069BB169DC
S11338408C4663441A000023009300213000164C78
S1133850A04700289BD172B6FEE70699B161002902
S113386006D041180300020030000E4CA0478EE73A
S113387072B6FEE730000E4B984788E7CF1E000073
S11338801C400020DD2D0000753600002040002083
S1133890504000204D290000192F0000612600002F
S11338A0584400001935000009360000ED1F0000DF
S11338B031210000F0B5DE4657464E464546E0B598
S11338C083B000252B4B9A468023DB029B46019351
S11338D0294B99463AE00135EDB2142D0BD94B46EC
S11338E01B78013303261E404B461E7016235E438D
S11338F0224B9E19002574190023237000222100F5
S113390043461868B847002813D023780A2BF3D00D
S11339100D2BE0D100232370174A137801330324BD
S11339201C40147016235C43144B1C1926000025FC
S1133930E2E7134B1868002300220021114CA04732
S113394053465A469A6102200F4B98475346019AB0
S11339505A610B4B1868012149420C4B9847064B9E
S11339601B7816265E43054B9E197419084B98461E
S1133970084FC3E700440041F04000209440002079
S1133980F4400020D923000019300000B5270000BE
S1133990EC4000206126000070B5134E134D330037
S11339A0002200212800124CA04733000B220021E2
S11339B02800A04733000C2200212800A047330030
S11339C00D2200212800A04733000E2200212800E8
S11339D0A04733000F2200212800A0473300102203
S11339E000212800A04770BD08000020C844000042
S11339F0CD060000F0B5DE4657464E464546E0B5D6
S1133A008BB001270024624D80235B0599469A46BA
S1133A10604B0633039382E02B6A5B0605D4A20055
S1133A20022106ABD150013484E02B6A1B0600D579
S1133A3080E0A200032106ABD15001347AE0564B5A
S1133A409847564B0A2200215548564EB0471FE06E
S1133A50514B9847514B0A2200215348514EB047CD
S1133A6016E04E4B0A22002150484E4EB046B04755
S1133A70FA2040004E4EB047474B9847474B05222B
S1133A8000214C48C047FA208000B0474A4B984771
S1133A90002F3ED0494E012149423068484B984797
S1133AA0484B1B689B46002300932033802200214F
S1133AB00020454FB8470123802217210020434F9F
S1133AC0B8470123082218213F20414FB84701235A
S1133AD0009307333F22182140203E4FB8472F4B15
S1133AE0192210212B482F4FB8472C4B1922502153
S1133AF00398B8474020384B984730680023002289
S1133B000021364EB0475B46002B02D05846344B5A
S1133B1098474B46AB611420324B984700275346D5
S1133B206B612B6A5B0200D576E7A200012106AB2C
S1133B30D1500134022C82D0032C89D0042CA7D17B
S1133B40099B0493089B0593049B059A944663443C
S1133B50079A9B18069A94466344062B81D10F4B0F
S1133B600A22002111480F4EB346B047FA20400004
S1133B700F4EB047084B9847084B052200211A48BE
S1133B80D847FA208000B0470B4B984780E7C046DF
S1133B90004400415045000099390000080000200D
S1133BA0F8440000CD060000044500001445000060
S1133BB0BD03000038450000891D0000904000202E
S1133BC0B527000058400020C90500001504000076
S1133BD0DD0400007905000015010000D923000070
S1133BE0E92C00001930000024450000F0B5DE4641
S1133BF057464E464546E0B583B0012300938023E3
S1133C001B03019304E000202C4B984700230093EE
S1133C102B4B019A5A61012149422A4B18682A4BBD
S1133C209847009A904608239B1A9A0193469A0053
S1133C30D2185200914699440026244B9A46F7B272
S1133C4015213800D047C5B2E800401B434658430D
S1133C504844C517072425402818C010C5B21521AB
S1133C6038001B4B9847CBB25900C918490043464A
S1133C7059430B005B44D9172140C918C910C9B274
S1133C80144BF05C144B2A00144CA04701363C2E14
S1133C90D5D10C4B1868002300220021104CA047FA
S1133CA0074B802212039A61009B072BABD8013388
S1133CB0DBB2009306200B4B9847A9E7F5300000D0
S1133CC00044004190400020B5270000853F0000DB
S1133CD0914000008844000008000020FD05000019
S1133CE0D92300001930000030B583B0174AD369D6
S1133CF0002BFCD1154B1C7EE4B2630709D5134B92
S1133D005B8BDBB29A0606D006221A4201D00F4B17
S1133D105A8303B030BD0D4B1B8D6A46911DDB05E4
S1133D20DB0D0B800A4B186800230022094DA847BD
S1133D300028EED0E30704D4044901220B7E134289
S1133D40FCD06B469A79014B1A85E2E700080042E1
S1133D50EC40002091250000F0B5C64600B592B0B5
S1133D6002AC00250027A570634B8022D2029A6121
S1133D70802212039A61802252059A6102232370E1
S1133D806570210012205D4EB04721001320B0471A
S1133D9021001C20B0472570012398466370210040
S1133DA01620B04721000620B04721000720B04765
S1133DB08023DB0502936560FF232381A572E572EE
S1133DC096239B01236224234246E2540133E254A6
S1133DD00133E5540133E554A5620533E554013359
S1133DE0E554656125820023E37627762777677695
S1133DF01323A376677780235B03E360404B23633D
S1133E00404B636301235B42A363E3633E4D3F4C3A
S1133E1002AA3F492800A0470028F9D13C483D4B5D
S1133E2098473D493D4B9847374D2C6820003C4B03
S1133E3098471F2318401E3B83403A4A13602A6860
S1133E40D369002BFCD123680222134323602E4B39
S1133E501B68DA69002AFCD15968802252020A439D
S1133E605A600121284AD171DA69002AFCD1DA6941
S1133E70002AFCD15968802292020A435A60012127
S1133E80214A9171DA69002AFCD10432204B9A75D7
S1133E900120254CA047254B18600120A047244B46
S1133EA01860002201214020224B9847224B1860C1
S1133EB0224D0195012300930023642220492148C7
S1133EC0214CA0470026019602230093002364227C
S1133ED01E491F48A0470196032300930023642230
S1133EE01C491D48A04728681C4CA0470020A04737
S1133EF012B004BC9046F0BD004400411D0900000E
S1133F0003000400030005005C400020ED120000E3
S1133F10000800427D0C0000E93C0000B90C0000E0
S1133F20F50C000000E100E0652500009040002051
S1133F30F440002091230000EC4000205840002071
S1133F40E0440000ED3B0000112B0000E8440000B9
S1133F50F5390000F0440000B5380000F5300000E9
S1133F6010B5044B9847044B9847044B9847044BAF
S1133F709847FEE7591D000071070000593D0000F5
S1133F806D2D0000002243088B4274D303098B4239
S1133F905FD3030A8B4244D3030B8B4228D3030C15
S1133FA08B420DD3FF22090212BA030C8B4202D3B7
S1133FB01212090265D0030B8B4219D300E0090ADF
S1133FC0C30B8B4201D3CB03C01A5241830B8B42E8
S1133FD001D38B03C01A5241430B8B4201D34B03D1
S1133FE0C01A5241030B8B4201D30B03C01A524136
S1133FF0C30A8B4201D3CB02C01A5241830A8B42BB
S113400001D38B02C01A5241430A8B4201D34B02A3
S1134010C01A5241030A8B4201D30B02C01A524107
S1134020CDD2C3098B4201D3CB01C01A52418309BB
S11340308B4201D38B01C01A524143098B4201D3F5
S11340404B01C01A524103098B4201D30B01C01A20
S11340505241C3088B4201D3CB00C01A524183089A
S11340608B4201D38B00C01A524143088B4201D3C7
S11340704B00C01A5241411A00D201465241104627
S11340807047FFE701B5002000F006F802BDC04606
S11340900029F7D076E770477047C046F0B5CE46A2
S11340A0474615042D0C2E0080B50704140C3F0C54
S11340B09946030C7E435D43674363437F19340C85
S11340C0E4199C46A54203D980235B029846C44464
S11340D04B46514343433604360C250C24046544B3
S11340E0A4195918491920000CBC90469946F0BDF2
S11340F070B500260C4D0D4C641BA410A64209D1CA
S1134100002600F02BFA0A4D0A4C641BA410A642A8
S113411005D170BDB300EB5898470136EEE7B30004
S1134120EB5898470136F2E76845000068450000FF
S1134130684500006C450000002310B59A4200D188
S113414010BDCC5CC4540133F8E7030082189342D9
S113415000D1704719700133F9E700000000000036
S1134160000000202020202000205050500000009B
S1134170005050F850F850502078A07028F020C01B
S1134180C810204098186090A040A8906860204013
S1134190000000001020404040201040201010106B
S11341A02040005020F8205000002020F82020005B
S11341B000000000602040000000F8000000000043
S11341C0000000606000081020408000708898A8FB
S11341D0C88870206020202020707088081020403B
S11341E0F8F810201008887010305090F81010F86B
S11341F080F008088870304080F0888870F80810D3
S1134200204040407088887088887070888878085A
S1134210106000606000606000006060006020402A
S1134220081020402010080000F800F8000080402A
S113423020102040807088081020002070880868B2
S1134240A8A87070888888F88888F08888F088889A
S1134250F070888080808870E09088888890E0F88A
S11342608080F08080F8F88080E080808070888092
S113427080988870888888F8888888702020202012
S11342802070381010101090608890A0C0A0908802
S1134290808080808080F888D8A8888888888888EA
S11342A0C8A898888870888888888870F08888F07A
S11342B080808070888888A89068F08888F0A090B2
S11342C088788080700808F0F8202020202020883A
S11342D08888888888708888888888502088888812
S11342E0A8A8D8888888502050888888885020209A
S11342F02020F80810204080F83820202020203882
S113430000804020100800E02020202020E02050E1
S11343108800000000000000000000F840201000A9
S1134320000000000070087888788080B0C8888811
S1134330F000007080808870080868988888780089
S1134340007088F88070304840E0404040000078B9
S1134350887808308080B0C8888888200060202051
S11343602070100030101090604040485060504859
S1134370602020202020700000D0A8A88888000099
S1134380B0C8888888000070888888700000F08829
S1134390F08080000068987808080000B0C8808029
S11343A080000070807008F04040E04040483000D9
S11343B000888888986800008888885020000088D1
S11343C088A8A85000008850205088000088887869
S11343D008700000F8102040F81020204020201021
S11343E020202020202020402020102020400000D9
S11343F000080042000C0042001000420014004279
S113440000180042001C0042D6170000D21700001A
S1134410D21700003818000038180000EA1700000E
S1134420DC170000F017000026180000C018000078
S1134430A0180000A01800002C190000B2180000F9
S1134440CE180000A4180000DC1800001C1900009D
S113445049444C450000000018380000183800009A
S113446018380000903700005A38000074380000F3
S11344701838000018380000903700005A3800003F
S1134480546D72205376630020202053454A412006
S113449042454D2056494E444F21202020202020C3
S11344A02020202020202020202020202020202008
S11344B02020202020444947495445204120534589
S11344C04E48413A000000002020202020202020D7
S11344D02020202020202020202020200000000058
S11344E041626F75740000004D61696E0000000048
S11344F0554152540000000020202020202020207C
S1134500202A20002020202020202020202A202AA9
S1134510200000002020202020202020202A202AE3
S1134520202A00002020202053454E484120434F9C
S1134530525245544121000020202053454E484109
S113454020494E434F52524554412120000000005F
S1134550454C43000000313034380000F8B5C04603
S1134560F8BC08BC9E467047DD000000F8B5C046A4
S10F4570F8BC08BC9E467047B500000073
S113457C401F000008000000000000005C41000027
S10F458C0607207D01000000AAAAAAAACC
S9031D8956
